{
  "_format": "hh-sol-artifact-1",
  "contractName": "BloodBankRegistry",
  "sourceName": "contracts/BloodBankRegistry.sol",
  "abi": [
    {
      "inputs": [
        {
          "internalType": "string",
          "name": "_name",
          "type": "string"
        },
        {
          "internalType": "uint256",
          "name": "_bloodId",
          "type": "uint256"
        },
        {
          "internalType": "uint256",
          "name": "_batchNo",
          "type": "uint256"
        },
        {
          "internalType": "uint256",
          "name": "_adharNumber",
          "type": "uint256"
        },
        {
          "internalType": "string",
          "name": "_bloodGroup",
          "type": "string"
        },
        {
          "internalType": "bool",
          "name": "_isVerified",
          "type": "bool"
        }
      ],
      "name": "addDonorDetails",
      "outputs": [],
      "stateMutability": "nonpayable",
      "type": "function"
    },
    {
      "inputs": [
        {
          "internalType": "address",
          "name": "",
          "type": "address"
        }
      ],
      "name": "bloodBanks",
      "outputs": [
        {
          "internalType": "address",
          "name": "owner",
          "type": "address"
        },
        {
          "internalType": "string",
          "name": "name",
          "type": "string"
        },
        {
          "internalType": "string",
          "name": "location",
          "type": "string"
        },
        {
          "internalType": "bool",
          "name": "isRegistered",
          "type": "bool"
        },
        {
          "internalType": "uint256",
          "name": "donorCount",
          "type": "uint256"
        }
      ],
      "stateMutability": "view",
      "type": "function"
    },
    {
      "inputs": [
        {
          "internalType": "string",
          "name": "_name",
          "type": "string"
        },
        {
          "internalType": "string",
          "name": "_location",
          "type": "string"
        }
      ],
      "name": "createBloodBank",
      "outputs": [],
      "stateMutability": "nonpayable",
      "type": "function"
    },
    {
      "inputs": [],
      "name": "getBloodBankDetails",
      "outputs": [
        {
          "internalType": "string",
          "name": "",
          "type": "string"
        },
        {
          "internalType": "string",
          "name": "",
          "type": "string"
        }
      ],
      "stateMutability": "view",
      "type": "function"
    },
    {
      "inputs": [],
      "name": "getDonorList",
      "outputs": [
        {
          "components": [
            {
              "internalType": "string",
              "name": "name",
              "type": "string"
            },
            {
              "internalType": "uint256",
              "name": "bloodId",
              "type": "uint256"
            },
            {
              "internalType": "uint256",
              "name": "batchNo",
              "type": "uint256"
            },
            {
              "internalType": "uint256",
              "name": "adharNumber",
              "type": "uint256"
            },
            {
              "internalType": "string",
              "name": "bloodGroup",
              "type": "string"
            },
            {
              "internalType": "uint256",
              "name": "dateOfDonation",
              "type": "uint256"
            },
            {
              "internalType": "bool",
              "name": "isVerified",
              "type": "bool"
            }
          ],
          "internalType": "struct BloodBankRegistry.Donor[]",
          "name": "",
          "type": "tuple[]"
        }
      ],
      "stateMutability": "view",
      "type": "function"
    }
  ],
  "bytecode": "0x608060405234801561001057600080fd5b50610d10806100206000396000f3fe608060405234801561001057600080fd5b50600436106100675760003560e01c8063c27f2db711610050578063c27f2db71461009f578063ddd52831146100c3578063ee4ff53d146100d657600080fd5b806348cfc7791461006c57806364278ef01461008a575b600080fd5b6100746100ec565b6040516100819190610836565b60405180910390f35b61009d610098366004610996565b6103ab565b005b6100b26100ad3660046109fa565b61041c565b604051610081959493929190610a37565b61009d6100d1366004610a8d565b610576565b6100de6106af565b604051610081929190610b26565b33600090815260208190526040902060038101546060919060ff166101585760405162461bcd60e51b815260206004820152601d60248201527f426c6f6f642042616e6b206973206e6f7420726567697374657265642e00000060448201526064015b60405180910390fd5b6000816005015467ffffffffffffffff811115610177576101776108f3565b6040519080825280602002602001820160405280156101ea57816020015b6101d76040518060e001604052806060815260200160008152602001600081526020016000815260200160608152602001600081526020016000151581525090565b8152602001906001900390816101955790505b50905060005b82600501548110156103a457600081815260048401602052604090819020815160e0810190925280548290829061022690610b54565b80601f016020809104026020016040519081016040528092919081815260200182805461025290610b54565b801561029f5780601f106102745761010080835404028352916020019161029f565b820191906000526020600020905b81548152906001019060200180831161028257829003601f168201915b505050505081526020016001820154815260200160028201548152602001600382015481526020016004820180546102d690610b54565b80601f016020809104026020016040519081016040528092919081815260200182805461030290610b54565b801561034f5780601f106103245761010080835404028352916020019161034f565b820191906000526020600020905b81548152906001019060200180831161033257829003601f168201915b50505091835250506005820154602082015260069091015460ff161515604090910152825183908390811061038657610386610b8e565b6020026020010181905250808061039c90610ba4565b9150506101f0565b5092915050565b33600081815260208190526040902080547fffffffffffffffffffffffff0000000000000000000000000000000000000000169091178155600181016103f18482610c1a565b50600281016104008382610c1a565b5060038101805460ff1916600117905560006005909101555050565b6000602081905290815260409020805460018201805473ffffffffffffffffffffffffffffffffffffffff909216929161045590610b54565b80601f016020809104026020016040519081016040528092919081815260200182805461048190610b54565b80156104ce5780601f106104a3576101008083540402835291602001916104ce565b820191906000526020600020905b8154815290600101906020018083116104b157829003601f168201915b5050505050908060020180546104e390610b54565b80601f016020809104026020016040519081016040528092919081815260200182805461050f90610b54565b801561055c5780601f106105315761010080835404028352916020019161055c565b820191906000526020600020905b81548152906001019060200180831161053f57829003601f168201915b505050506003830154600590930154919260ff1691905085565b336000908152602081905260409020600381015460ff166105d95760405162461bcd60e51b815260206004820152601d60248201527f426c6f6f642042616e6b206973206e6f7420726567697374657265642e000000604482015260640161014f565b6040805160e081018252888152602080820189905281830188905260608201879052608082018690524260a0830181905285151560c08401526005850154600090815260048601909252929020815181906106349082610c1a565b50602082015160018201556040820151600282015560608201516003820155608082015160048201906106679082610c1a565b5060a082015160058281019190915560c0909201516006909101805460ff1916911515919091179055820180549060006106a083610ba4565b91905055505050505050505050565b33600090815260208190526040902060018101805460609283929091600283019082906106db90610b54565b80601f016020809104026020016040519081016040528092919081815260200182805461070790610b54565b80156107545780601f1061072957610100808354040283529160200191610754565b820191906000526020600020905b81548152906001019060200180831161073757829003601f168201915b5050505050915080805461076790610b54565b80601f016020809104026020016040519081016040528092919081815260200182805461079390610b54565b80156107e05780601f106107b5576101008083540402835291602001916107e0565b820191906000526020600020905b8154815290600101906020018083116107c357829003601f168201915b5050505050905092509250509091565b6000815180845260005b81811015610816576020818501810151868301820152016107fa565b506000602082860101526020601f19601f83011685010191505092915050565b60006020808301818452808551808352604092508286019150828160051b87010184880160005b838110156108e557603f19898403018552815160e08151818652610883828701826107f0565b915050888201518986015287820151888601526060808301518187015250608080830151868303828801526108b883826107f0565b60a0858101519089015260c09485015115159490970193909352505050938601939086019060010161085d565b509098975050505050505050565b634e487b7160e01b600052604160045260246000fd5b600082601f83011261091a57600080fd5b813567ffffffffffffffff80821115610935576109356108f3565b604051601f8301601f19908116603f0116810190828211818310171561095d5761095d6108f3565b8160405283815286602085880101111561097657600080fd5b836020870160208301376000602085830101528094505050505092915050565b600080604083850312156109a957600080fd5b823567ffffffffffffffff808211156109c157600080fd5b6109cd86838701610909565b935060208501359150808211156109e357600080fd5b506109f085828601610909565b9150509250929050565b600060208284031215610a0c57600080fd5b813573ffffffffffffffffffffffffffffffffffffffff81168114610a3057600080fd5b9392505050565b73ffffffffffffffffffffffffffffffffffffffff8616815260a060208201526000610a6660a08301876107f0565b8281036040840152610a7881876107f0565b94151560608401525050608001529392505050565b60008060008060008060c08789031215610aa657600080fd5b863567ffffffffffffffff80821115610abe57600080fd5b610aca8a838b01610909565b97506020890135965060408901359550606089013594506080890135915080821115610af557600080fd5b50610b0289828a01610909565b92505060a08701358015158114610b1857600080fd5b809150509295509295509295565b604081526000610b3960408301856107f0565b8281036020840152610b4b81856107f0565b95945050505050565b600181811c90821680610b6857607f821691505b602082108103610b8857634e487b7160e01b600052602260045260246000fd5b50919050565b634e487b7160e01b600052603260045260246000fd5b600060018201610bc457634e487b7160e01b600052601160045260246000fd5b5060010190565b601f821115610c1557600081815260208120601f850160051c81016020861015610bf25750805b601f850160051c820191505b81811015610c1157828155600101610bfe565b5050505b505050565b815167ffffffffffffffff811115610c3457610c346108f3565b610c4881610c428454610b54565b84610bcb565b602080601f831160018114610c7d5760008415610c655750858301515b600019600386901b1c1916600185901b178555610c11565b600085815260208120601f198616915b82811015610cac57888601518255948401946001909101908401610c8d565b5085821015610cca5787850151600019600388901b60f8161c191681555b5050505050600190811b0190555056fea264697066735822122066156d1c598cf86e0dc7babd582b7662b9186bb64c953d18cc47121ceff0dc7264736f6c63430008130033",
  "linkReferences": {},
  "deployedLinkReferences": {}
}