{
  "_format": "hh-sol-artifact-1",
  "contractName": "BloodBankRegistry",
  "sourceName": "contracts/BloodBankRegistry.sol",
  "abi": [
    {
      "inputs": [
        {
          "internalType": "address",
          "name": "",
          "type": "address"
        }
      ],
      "name": "bloodBanks",
      "outputs": [
        {
          "internalType": "address",
          "name": "owner",
          "type": "address"
        },
        {
          "internalType": "string",
          "name": "name",
          "type": "string"
        },
        {
          "internalType": "string",
          "name": "location",
          "type": "string"
        },
        {
          "internalType": "bool",
          "name": "isRegistered",
          "type": "bool"
        }
      ],
      "stateMutability": "view",
      "type": "function"
    },
    {
      "inputs": [
        {
          "internalType": "string",
          "name": "_name",
          "type": "string"
        },
        {
          "internalType": "string",
          "name": "_location",
          "type": "string"
        }
      ],
      "name": "createBloodBank",
      "outputs": [],
      "stateMutability": "nonpayable",
      "type": "function"
    },
    {
      "inputs": [],
      "name": "getBloodBankDetails",
      "outputs": [
        {
          "internalType": "string",
          "name": "",
          "type": "string"
        },
        {
          "internalType": "string",
          "name": "",
          "type": "string"
        }
      ],
      "stateMutability": "view",
      "type": "function"
    }
  ],
  "bytecode": "0x608060405234801561001057600080fd5b50610778806100206000396000f3fe608060405234801561001057600080fd5b50600436106100415760003560e01c806364278ef014610046578063c27f2db71461005b578063ee4ff53d14610087575b600080fd5b61005961005436600461048f565b61009d565b005b61006e6100693660046104f3565b610158565b60405161007e9493929190610576565b60405180910390f35b61008f6102ab565b60405161007e9291906105cb565b6040805160808101825233808252602080830186815283850186905260016060850181905260009384529183905293909120825181547fffffffffffffffffffffffff00000000000000000000000000000000000000001673ffffffffffffffffffffffffffffffffffffffff9091161781559251919291908201906101239082610682565b50604082015160028201906101389082610682565b50606091909101516003909101805460ff19169115159190911790555050565b6000602081905290815260409020805460018201805473ffffffffffffffffffffffffffffffffffffffff9092169291610191906105f9565b80601f01602080910402602001604051908101604052809291908181526020018280546101bd906105f9565b801561020a5780601f106101df5761010080835404028352916020019161020a565b820191906000526020600020905b8154815290600101906020018083116101ed57829003601f168201915b50505050509080600201805461021f906105f9565b80601f016020809104026020016040519081016040528092919081815260200182805461024b906105f9565b80156102985780601f1061026d57610100808354040283529160200191610298565b820191906000526020600020905b81548152906001019060200180831161027b57829003601f168201915b5050506003909301549192505060ff1684565b33600090815260208190526040902060018101805460609283929091600283019082906102d7906105f9565b80601f0160208091040260200160405190810160405280929190818152602001828054610303906105f9565b80156103505780601f1061032557610100808354040283529160200191610350565b820191906000526020600020905b81548152906001019060200180831161033357829003601f168201915b50505050509150808054610363906105f9565b80601f016020809104026020016040519081016040528092919081815260200182805461038f906105f9565b80156103dc5780601f106103b1576101008083540402835291602001916103dc565b820191906000526020600020905b8154815290600101906020018083116103bf57829003601f168201915b5050505050905092509250509091565b634e487b7160e01b600052604160045260246000fd5b600082601f83011261041357600080fd5b813567ffffffffffffffff8082111561042e5761042e6103ec565b604051601f8301601f19908116603f01168101908282118183101715610456576104566103ec565b8160405283815286602085880101111561046f57600080fd5b836020870160208301376000602085830101528094505050505092915050565b600080604083850312156104a257600080fd5b823567ffffffffffffffff808211156104ba57600080fd5b6104c686838701610402565b935060208501359150808211156104dc57600080fd5b506104e985828601610402565b9150509250929050565b60006020828403121561050557600080fd5b813573ffffffffffffffffffffffffffffffffffffffff8116811461052957600080fd5b9392505050565b6000815180845260005b818110156105565760208185018101518683018201520161053a565b506000602082860101526020601f19601f83011685010191505092915050565b73ffffffffffffffffffffffffffffffffffffffff851681526080602082015260006105a56080830186610530565b82810360408401526105b78186610530565b915050821515606083015295945050505050565b6040815260006105de6040830185610530565b82810360208401526105f08185610530565b95945050505050565b600181811c9082168061060d57607f821691505b60208210810361062d57634e487b7160e01b600052602260045260246000fd5b50919050565b601f82111561067d57600081815260208120601f850160051c8101602086101561065a5750805b601f850160051c820191505b8181101561067957828155600101610666565b5050505b505050565b815167ffffffffffffffff81111561069c5761069c6103ec565b6106b0816106aa84546105f9565b84610633565b602080601f8311600181146106e557600084156106cd5750858301515b600019600386901b1c1916600185901b178555610679565b600085815260208120601f198616915b82811015610714578886015182559484019460019091019084016106f5565b50858210156107325787850151600019600388901b60f8161c191681555b5050505050600190811b0190555056fea264697066735822122055d0f0db9e2d6e5fc8e1fb74b9e22714d6c0e7ae8fd4a8c566bc9893591b065d64736f6c63430008130033",
  "linkReferences": {},
  "deployedLinkReferences": {}
}